:020000041000EA
:10000000002008205B0100101B0100101D010010E2
:100010001101001011010010110100101101001058
:100020001901001019010010190100101F01001022
:10003000110100101901001021010010230100100E
:100040001101001011010010110100101101001028
:100050001101001011010010110100101101001018
:100060001101001011010010110100101101001008
:1000700011010010110100101101001011010010F8
:1000800011010010110100101101001011010010E8
:1000900011010010110100101101001011010010D8
:1000A00011010010110100101101001011010010C8
:1000B00011010010110100101101001011010010B8
:1000C00011010010110100101101001011010010A8
:1000D0001101001011010010110100101101001098
:1000E0001101001011010010110100101101001088
:1000F0001101001011010010110100101101001078
:100100001101001011010010110100101101001067
:10011000EFF30580103800BE00BE00BE00BE00BE7A
:1001200000BE00BEF2EB8871449E0010689E001075
:100130009C01001090A31AE7D3DEFFFF42012110BB
:10014000FF01000048B80000793512AB00201E49BD
:10015000086006C881F3088810474FF050400068D7
:1001600008B10020F3E70DA40ECC002902D000F066
:1001700012F8F9E71549164A002000E001C1914242
:10018000FCD114498847144988471449884700BE60
:10019000FDE701C901C29A42FBD37047689E001077
:1001A00010010020281C002080B900100000082049
:1001B0000000082080B9001000100820001008205E
:1001C000000000007047000008ED00E0281C00203F
:1001D00000260020613D001031020010593D001042
:1001E000044B1A7A12B100221A70704701221A7059
:1001F000704700BFAC250020044600B50A4B85B00F
:1002000004AD0FCB05E90F0004AB03EB8404074DED
:1002100054F8104C2146284603F07CFF4FF4FA6056
:1002200001F0FAFDF6E700BF987A0010507A00104E
:100230002DE9F04383B003F0AFFE00F097F910B161
:100240000120FFF7D9FF00F003F900287FD1012238
:1002500004210F20434B00F093FD012204211120C3
:10026000404B00F08DFD404C404EDFF80881404F80
:100270002378032BFCD8DFE803F05A4420022178CE
:10028000304603F047FF01234FF496750020237298
:1002900000F0E8F82378DBB28DF80730642001F035
:1002A000BBFD22789DF807309A4256D1013DF5D129
:1002B00000F036F925722570DAE74FF416792178C7
:1002C000304603F027FF4046616803F023FF636870
:1002D000227809FB03F9D2B2B9F1000F8DF806209C
:1002E00038DD002502E00135A94533D0642001F056
:1002F00093FD22789DF806309A42F4D000232370B3
:10030000B6E72178304603F005FF00F04DF94FF0D5
:1003100080450346402102226360C7F83452C7F883
:10032000381222703046217803F0F4FEA0E732251F
:100330002378DBB28DF80530642001F06DFD227862
:100340009DF805309A4293D1013DF5D190E7022006
:10035000FFF752FF032323708AE700F0E1F8002340
:10036000237285E7E1010010AC250020407A0010DF
:1003700000800240707A001080221849184B0878DB
:1003800010B4C3F8F42058B1164802680132FF2AAD
:1003900019DDFF2400234FF6016204600B7007E0B3
:1003A000104C23685A1E13D412FB02F322609AB237
:1003B0000B4B0D49D3F898305DF8044B53409BB27A
:1003C000C1F89830704712FB02F302609AB2EFE76F
:1003D0000123024620600B70EAE700BF08130020EB
:1003E00000800A405C21002000900A408021144ACD
:1003F000144B10B4C2F8F4101A787AB9124B1B8857
:1004000013FB03F39AB20E4B1049D3F898305DF802
:10041000044B53409BB2C1F8983070470A490A68B0
:100420000132FF2A06DDFF2400204FF601620C6036
:100430001870E8E712FB02F30A609AB2E3E700BF24
:1004400000800A40081300205C21002000900A4030
:1004500008B50E2000F014FD0E23012242EC4430BA
:10046000002008BDF8B500210446082000F00EFE6B
:10047000802600220120224D224B2349C5F8F86036
:1004800008701A60A4B3844230D108201F4900F0DC
:1004900041FE502604210E2000F03AFC00234FF6C6
:1004A000FF7C80221A4C1B4DC4F88C30C4F8943069
:1004B000C4F89830C4F89CC0C4F89060C4F88C307C
:1004C000D4F89830144F9BB2C5F898300121C4F885
:1004D000F4200820C7F8F82000F0D8FDD4F88C30BC
:1004E000DB4303F00103C5F88C30F8BD1026D1E7DB
:1004F00008200A4900F00EFE4FF44876CAE700BF14
:1005000000B00A405C21002008130020790300108D
:1005100000800A4000900A4000A00A40ED0300104D
:1005200010B580240E4B0021C3F8F840082000F0DD
:10053000ADFD0C4B0C4AC3F8F440D3F88C300521C8
:1005400003F00103C2F88C300E2000F0E1FB0E2313
:10055000012242EC4430002242EC403010BD00BF8A
:1005600000B00A4000800A4000900A4010B56420A4
:1005700006F0F0FC0B4803F04FFD06F013FD08B148
:10058000012010BD044606F04DF806F0EDF90F20ED
:1005900006F0D2FC112006F0CFFC204606F0DAFB74
:1005A000204610BDA87A00102DE9F04F2DED028BEA
:1005B0004FF4806087B002F017F9002800F0AF8296
:1005C00008EE100A00254FF6FF74DFF83C93C64E84
:1005D0004F4608EE906AC548C54E03F01DFDB42392
:1005E0004022802118EE100A009506F08FFB14219E
:1005F0003346C04A0A20CDE90054059506F030FC88
:1006000018EE100A06F0FEF94FF4FA6006F0A2FCAC
:10061000B4234022802118EE100A009406F076FBE5
:1006200009F1040A284606F095FBCDF810A04FF01A
:10063000000BB846D946112006F062FC002840F0B5
:100640004782CDE900042B2205217320AA4B06F036
:10065000F1FB4FF4487B09F101090F2006F050FC33
:10066000002840F027823221CDE900042D2273209A
:10067000A14B06F0DFFB40F2213B40F283304FF408
:10068000487109F1FF399D4A82FB09324FEAE9734B
:10069000C3EB2213C8F80030D8F80030172B00F352
:1006A000E981D8F800301733C0F2E481D8F800307F
:1006B000002B04DAD8F800301833C8F80030C62808
:1006C00010D9A1F16403632B0CD9A1F5C873C72B12
:1006D00008D9A1F54873C72B04D9A1F59663C72B98
:1006E00000F208820C20D8F800A002F07DF807463E
:1006F00038B1BAF1090F5246D4BF8149814903F09C
:10070000CFFA3A46334614210F20CDE9004506F0D2
:10071000A7FB33463A2214212D20CDE9005406F0E0
:1007200089FB0C2002F060F80746002800F0E88101
:100730000022734903F0B4FA3A46334614213C20B0
:10074000CDE9004506F08CFB18EE902A0521CDE995
:100750000045694B0F2006F083FB18EE100A06F0E7
:1007600051F9002006F0F6FABBF5FA6F7FF463AF9B
:100770004FF000094746C846DFF87CB1DDF810A00D
:100780000397112006F0BCFB0194002840F077810C
:100790005B462B2205210090732006F04BFB0F20B7
:1007A00006F0AEFB4FF4487908F1010801940028E7
:1007B00040F07381322100905B4673202D2206F0B9
:1007C00039FB40F2213940F283304FF4487108F18F
:1007D000FF384A4A82FB08324FEAE873C3EB221320
:1007E000CAF80030DAF800303B2B00F33E81DAF82B
:1007F00000303B33C0F23981DAF80030002B04DAE4
:10080000DAF800303C33CAF80030C62810D9A1F11C
:100810006403632B0CD9A1F5C873C72B08D9A1F5C4
:100820004873C72B04D9A1F59663C72B00F25C81EE
:10083000DAF800200C20029201F0D6FF074630B112
:10084000029A092AD4BF2E492E4903F029FA3A46C2
:10085000334614213C20CDE9004506F001FB334628
:100860003A2214212D20CDE9005406F0E3FA039B2F
:100870000C201A68029201F0B7FF074630B1029AC5
:10088000092AD4BF1E491F4903F00AFA3A463346E3
:1008900014210F20CDE9004506F0E2FA5B4618EE80
:1008A000902A05210F20CDE9004506F0D9FA18EE6F
:1008B000100A06F0A7F8002006F04CFAB9F5FA6F16
:1008C0007FF45FAFDDE903730C20D3F8009001F0F3
:1008D0008BFF8046D0B1B9F1090F4A46D4BF084911
:1008E000084903F0DDF911E0BC7A0010F47A001039
:1008F000D8130020087B0010D013002067666666BE
:10090000B47A0010B87A0010BC2500204246334665
:1009100014213C20CDE9004506F0A2FA33463A22E4
:1009200014212D20CDE9005406F084FA0C20D7F8CC
:10093000008001F059FF074638B1B8F1090F42466F
:10094000D4BF7949794903F0ABF933463A461421CB
:100950000F20CDE9004506F083FA754F18EE100A16
:1009600006F050F80020049706F0F4F94FF47A707E
:1009700001F052FA6F4B043F08EE903A059B002BB2
:1009800000F0AF803B6857F8082CA7F108019B1ACC
:10099000BB60BB686849002BBCBF0023BB60CB6851
:1009A0004A680C209B1A4B614B69002BBCBF00238B
:1009B0004B6161490B694A69C3EB031302EB830383
:1009C0004D698B6101F010FF044630B1092D2A46B4
:1009D000D4BF5549554903F063F900254FF6FF761A
:1009E000224614213C20CDE90065544B06F038FA2C
:1009F0003A2214212D20CDE90056504B06F01AFA68
:100A00004D4B0C201D6901F0EFFE044630B1092D5D
:100A10002A46D4BF4449454903F042F900254FF620
:100A2000FF76224614210F20CDE90065434B06F0E6
:100A300017FA0521424B434A0F20CDE9006506F025
:100A40000FFA18EE100A05F0DDFF284606F082F9CD
:100A50004FF4FA6001F0E0F905F086FF364B986933
:100A600007B0BDEC028BBDE8F08F00239846CAF8B2
:100A70000030CAE600239946C8F800301FE6334626
:100A80002B2200216E20009506F0D4F90F2006F0ED
:100A900037FA019400283FF48DAE2D226E201146C6
:100AA0003346009506F0C6F9494609F1630009F19D
:100AB00001098EE62D226E2011463346CDE9005401
:100AC00006F0B8F959460BF163000BF1010BDAE5BA
:100AD00033462B2200216E20CDE9005406F0AAF9FE
:100AE000BBE501230593A2E5A1F5C861C7293FF63F
:100AF000B6AE9DE6A1F5C861C7293FF60AAEF1E59D
:100B0000024633461421CDE900403C2006F0A8F906
:100B100018EE902A0521CDE90047094B1AE60A4C48
:100B2000204603F079FAFBE7B47A0010B87A001097
:100B3000C8250020107B0010BC250020D813002001
:100B4000D0130020207B0010CC7A00104FF05041D1
:100B50002DE9F84F08260F68694B6A4A07EBC7086A
:100B6000DFF8A4A1DFF8A49153F827B002EBC8087E
:100B7000A6F10805EA0802F10C0358F82340E4B195
:100B8000BBF1000F1ED014F00F0110D05AF827301F
:100B900005F00702EB40E8089200DB0701FA02F2D9
:100BA00000F18C0C03D4284649F82C20D84724099E
:100BB00005F1010501D0B542E5D30836282ED7D17D
:100BC000BDE8F88F14F00F0104D05AF82730EB403D
:100BD000D80770D52309A6F10701EED013F00F0353
:100BE0000CD05AF82720CA40D20707D401F00700DA
:100BF000CA0881008B408C3249F82230230AA6F1C2
:100C00000601DAD013F00F030CD05AF82720CA409F
:100C1000D50707D401F00700CA0881008B408C3249
:100C200049F82230230BA6F10501C6D013F00F03BB
:100C300033D1230CA6F10401BFD013F00F0343D12D
:100C4000230DA6F10301B8D013F00F034AD1230EF0
:100C5000A6F10201B1D013F00F030CD05AF82720EF
:100C6000CA40D00707D401F00700CA0881008B40B2
:100C70008C3249F82230240F06F1FF329DD05AF809
:100C80002730D340D90798D402F00701D3088A004F
:100C900094408C3349F823408FE75AF82720CA4004
:100CA000D007C6D401F00700CA0881008B408C32FF
:100CB00049F82230BDE705F007039B0001FA03F372
:100CC0008C3249F8223085E75AF82720CA40D207EB
:100CD000B6D401F00700CA0881008B408C3249F875
:100CE0002230ADE75AF82720CA40D507AFD401F02B
:100CF0000700CA0881008B408C3249F82230A6E7F1
:100D0000EC200020488202409C2500200080024008
:100D100010B44FF480740C4B53F8202003EB800385
:100D2000C00082F0400200F1804003F5805C02F0D8
:100D3000C00200F5203003F54053CCF8002041609C
:100D40001C605DF8044B704704800340002915BF08
:100D50000C2104214FF0080C4FF0000C002A08BFB2
:100D60006146064B53F8202003EB80034A4003F50D
:100D7000805302F00C021A60704700BF04800340E9
:100D80002DE9F04104460E4682B01ABB4FF0504C9C
:100D900004F00704A40001FA04F4DCF80010C00811
:100DA0008600324D01EBC10106EBC101DFF8C4E062
:100DB0000D448C304EF820402C602D4FDCF8004064
:100DC00057F8241069B3002B41D047F8243002B003
:100DD000BDE8F0814FF05048254FD8F8005057F843
:100DE00025204AB3002B39D047F825304FF0504327
:100DF0001D68E30805EBC50504F00704A0001D49C4
:100E0000ED00864005EB83058C3341F82360152007
:100E10000121194A2A44166002B0BDE8F04100F0F1
:100E200035B9002BD3D01520144947F8243002B02F
:100E3000BDE8F04100F09CB9002BDAD015200F4935
:100E400047F8253000F094F9D8F80050D1E7152084
:100E50000A49019300F080FA019BB6E71520074983
:100E6000019300F079FA019BBEE700BF48B202404F
:100E7000EC2000200080024048A202404D0B0010F0
:100E800030B4002343EC440043EC400005254FF40C
:100E900080740B4BC20053F8201003EB800081F0EC
:100EA000400102F1804303F5203301F0C00200F558
:100EB000805100F540500A605D60046030BC7047AE
:100EC000048003400FB400B583B0049C074803F0CE
:100ED000A3F83CB105A92046019102F00BFF04489C
:100EE00003F09AF8012002F01DFF00BF307B0010D4
:100EF0000C7F001070B5EFF3108572B6134CD4E878
:100F0000CFCF0126BCF1000FF9D1C4E84C6FBCF182
:100F1000000FF4D1BFF35F8F4FF0010C4FEAD10EF9
:100F200001F007030CFA03F310F80EC01CEA0306E5
:100F300008D14CEA030300F80E30C4E88F6F85F344
:100F4000108870BD1046FFF7BDFF00BFAF1F002027
:100F5000F8B5EFF3108572B6234CD4E8CF7F0126A5
:100F6000002FFAD1C4E8476F002FF6D1BFF35F8F8F
:100F70009A4227D80126D70810F807E002F0070C9C
:100F800006FA0CFC1EEA0C0F00EBD2070DD125E08F
:100F90004FEAD20E10F80EE002F0070C06FA0CFC35
:100FA0001EEA0C0F00EBD20718D001329342EFD2A9
:100FB0004FF0FF300023C4E88F3F85F3108898423C
:100FC00007DBF8BD0023C4E88F3F85F310884FF09E
:100FD000FF300029F5D00698FFF774FF4EEA0C0C9D
:100FE000104687F800C0E5E7AF1F0020044A1078DC
:100FF000431CDBB2172B88BF10231370704700BF50
:101000000913002010B5054C82B001461F23182299
:1010100000940348FFF79CFF02B010BD407B001016
:10102000FC2000204FF0E022936843F000539360CF
:10103000704700BF0021044B03F12002C3E88F1F5B
:1010400001339342FAD17047A41F00204FF0E023F0
:101050004FF08032C3F80024C3F80424C3F80824F6
:10106000C3F80C24C3F81024C3F81424C3F81824BC
:10107000C3F81C24C3F82024C3F82424C3F828246C
:10108000C3F82C24C3F8302462B67047012300F063
:101090001F029340400941B1800000F1604000F51B
:1010A0006140C0F8803103607047024A203042F846
:1010B0002030704700E100E00123064A410952F860
:1010C000212000F01F0003FA00F0104214BF184660
:1010D0000020704700E100E001224309044900F0CC
:1010E0001F0002FA00F0403341F82300704700BFB0
:1010F00000E100E0054A10309268054B52F82000EC
:10110000C01A47288CBF00200120704700ED00E086
:101110000C13002010B5EFF3108C72B6114BD3E80E
:10112000CF4F0122002CFAD1C3E8442F002CF6D176
:10113000BFF35F8F0C4A103092680C4C52F820209D
:10114000A24203D0914201D001F0AAF8064A926867
:1011500042F82010BFF35F8F0022C3E88F2F8CF37B
:10116000108810BDAD1F002000ED00E0110100103F
:101170002DE9F04F8A4685B0EFF3108B72B6DFF899
:10118000D491D9E8CF1F01230029FAD1C9E8413F02
:101190000029F6D1BFF35F8F674991F90060002EF7
:1011A000C0F2C880654C00F1100706EB460004EB66
:1011B00080039D7980000D706149804689680190A7
:1011C00051F8271070000D1B472D9E4602903AD80B
:1011D00021F0010C9CF8075095420CD87EE003EBFF
:1011E000430004EB8000C57903EB4300954204EB18
:1011F000800055D984469CF90630002BEFDA4BF677
:10120000015003900CF1040001900198AEF1040527
:101210002D1AC5F34A056FEAC5456FEAD545029810
:10122000DFF82C8130448CF80660ACF8045004EBF5
:10123000800644F8208086460398B371B080F2712E
:10124000C6F808A01EE03F4DA94273D1DA713E4AAC
:1012500008F10208A044043AA2EB0802C2F34A02D1
:101260006FEAC2426FEAD2425A804BF601524FF403
:1012700021459A80FF220198C3F808A043F001019C
:1012800025529A712E4B9B6843F82710BFF35F8F4E
:101290000023C9E88F3F8BF3108805B0BDE8F08FBD
:1012A000BCF804000CF104054005019510D4019D23
:1012B0004015023005EB40006FF00705A5EB08056F
:1012C0002D1B2844C0F34A0040F4604003909CE783
:1012D00000F5FF1000F5FF501F30E8E76FF007053D
:1012E000DA714FF421424AF6AA260198A5EB0805C7
:1012F0002252281B144A354608F10208134E604456
:10130000A044C0F34A00043A3043A2EB080298809C
:10131000C2F34A020E4832435A80C3F808A062461C
:10132000121B524155432D0D43F001019D71CCF824
:101330000000A7E700F0B4FFF82500200C13002000
:1013400000ED00E0110100105413002000E0FFFF49
:1013500001488047AD1F00202DE9F84FEFF31088BA
:1013600072B66A4ED6E8CF2F0123002AFAD1C6E81A
:10137000423F002AF6D1BFF35F8F654B00F1100E9C
:101380009B6853F82E50634B9D423AD08D4245D016
:10139000614C2B1B472B34D84FF001094709BF0084
:1013A00007F1604707F561473B6800F01F0009FA45
:1013B00000F9C7F8809009EA030ABFF35F8FEFF3E3
:1013C0000583DBB29B465BBB25F0010CDCF8080013
:1013D000814209D190E003EB430204EB8202906862
:1013E0001346814223D09C469CF90630002BF2DA4A
:1013F000814256D0BAF1000F16D0C7F88091C7F8D5
:101400000090434B9B6843F82E50BFF35F8F00233F
:10141000C6E88F3F88F31088BDE8F88F1D46F0E7D7
:101420009E45D1D000F03CFFC7F88090E9E792F9E3
:101430000610002936DB01EB410C04EB8C0CDCF8C8
:10144000082048009A609CF80720DA719CF9062071
:10145000002A9A713EDBBCF80420520504D502F53F
:10146000FF1202F5FF521F32521502F1020C4FF02B
:10147000040B0C2212FB01B202EB4C026FF0070CC2
:101480002244ACEB030C6244C2F34A0242F46042D1
:101490009A80224B08441A7804EB80041970A271D8
:1014A000A8E76346BBF1000F17D1FF228CF8062096
:1014B0004BF60152ACF8042018484AF6AA2290F8DC
:1014C00000C01946091B49414A43120D83F806C062
:1014D00002708FE74BF60152DAE7114A1148D21A2F
:1014E000083AC2F30A316FEA01516FEA115140EA3A
:1014F0005202DA8099807DE79CF906106346002944
:1015000099DABBF1000FE8D1024DD5E7AD1F0020FD
:1015100000ED00E0110100100C130020F825002060
:101520005E13002000F8FFFFF0B5EFF30585EDB284
:10153000EFF3108C72B62C49D1E8CF2F0123002A8B
:10154000FAD1C1E8423F002AF6D1BFF35F8F274EA0
:1015500040F0010EB4684AF6AA2354F82570244AD4
:101560000446A41A644163431B0D77455BB223D044
:1015700092F906409C4224D092F912409C422BD012
:1015800092F91E409C4229D092F92A409C4227D0D1
:1015900092F936409C4225D092F942409C4208BFC5
:1015A00005240FD0134A0024157813708571C1E803
:1015B0008F4F8CF31088F0BDB2680F4C42F8254075
:1015C000F0E7002404EB440402EB8402FF2494714E
:1015D0004BF601549480E5E70124F3E70224F1E798
:1015E0000324EFE70424EDE7AD1F002000ED00E049
:1015F0000C130020F82500201101001010B5074C35
:1016000082B001460523002200940548FFF7A0FCA4
:101610000028A8BFC0F1330002B010BD5C7B0010F1
:10162000FD250020014B194401607047A41F0020D4
:10163000F8B5124D124EB5421FD22C462368FF2733
:101640007BB1FFF7D3FC01462846FFF7EBFFA780ED
:10165000BFF35F8F0834B4420FD223682546002BB6
:10166000EFD1FFF7C3FC01462846FFF7DBFF2771E8
:10167000BFF35F8F0834B442EFD3F8BD201C0020C5
:10168000281C002010B50446FFF7B0FC0146204698
:10169000FFF7C8FFFF232371BFF35F8F10BD00BFAB
:1016A00010B504460120FFF7ADFC034B1844206041
:1016B000BFF35F8F10BD00BFA41F0020024B194471
:1016C0000160BFF35F8F7047A41F002010490B68B3
:1016D000EFF3108072B6D3E8CFCF0122BCF1000F38
:1016E000F9D1C3E84C2FBCF1000FF4D1BFF35F8FE9
:1016F000084A4FF0000C137809680133DBB213700D
:10170000C1E88FCF80F3108840BF002000217047D0
:10171000B8250020FA2500202DE9F04F2DED028B91
:1017200085B0EFF30583DBB2103B9A0818BF0122A6
:101730004FF0010103F00300AD4B00EB82020CBF40
:10174000AC4FAD4F53F8226001FA00F207F5415358
:101750009FEDA58BB046019000925A6035E0B8F835
:1017600004301B0440F1928098F80630002B40F0C2
:10177000DF80B8F90820002AC0F22581D8F814309B
:1017800002EB420203EBC202D2E90245B5F1FF3F90
:1017900008BFB4F1FF3F0DD0019B07EB8301BB6A8B
:1017A0000A69D21AE31A934203D33B6A009A13429E
:1017B00000D10C61384600F0CBFB201A65EB010527
:1017C000012875F1000380F2FE80B8F90840009B03
:1017D000002CFB63C3DBD8F814A004EB440B3846A1
:1017E0000AEBCB05D5E9029600F0B2FB484561EB68
:1017F00006010029B3DB002EC0F2C3802B697F4AAB
:10180000934200F0FD806A88B8F9080092B242EA7B
:1018100000406969984702460B4652EA030100F00E
:10182000B080002B80F2D580B9EB020066EB030399
:10183000C5E902033AF93B50002D90DBD8F814C0FB
:1018400005EB45010CEBC1018A68821ACA6863EB9B
:101850000202002A83DBA8F8085007E09568451BC0
:10186000D56863EB0505002D08DB1146B1F9006072
:1018700006EB4602002E0CEBC202EFDA2AF83B60C0
:101880000C80B8F804301B043FF56EAFD8F8103068
:10189000EFF3108272B6D3E8CF0F01210028FAD1FE
:1018A000C3E8401F0028F6D1BFF35F8F4FF6FF70EB
:1018B000B8F804900023D8F810100FFA89F9A8F8A6
:1018C0000400C1E88F3F82F310889945FFF64CAFC2
:1018D000BA46D8F8145008F1080B09EB490E05EB8D
:1018E000CE03D3E90267B8F90830DC46002B05DAED
:1018F0000FE035F934308446002B0ADB03EB430458
:1019000005EBC400D0E90212711A67EB0202002A4B
:10191000EFDAACF8009035F93E9025F83E30B9F199
:10192000000FDADA98F806305746002B3FF421AF63
:10193000002388F80630B8F9083008F1080C5E1C5E
:1019400041D01A46D8F8144003E08446591C3FF4AD
:1019500012AF03EB430104EBC10045881E462D0482
:1019600034F93130F1D5964280ED028BEED0ACF8EF
:101970000030B8F8082024F831203246A8F8086072
:10198000E4E73AF83B30A8F80830D8F81030EFF325
:10199000108272B6D3E8CF0F01210028FAD1C3E834
:1019A000401F0028F6D1BFF35F8FB8F80230D8F897
:1019B00010102AF83B300023A8F80240C1E88F3FFE
:1019C00082F31088CBE640BF05B0BDEC028BBDE8CA
:1019D000F08F3846CDE9022300F0BAFA029A039B51
:1019E000801843EB010323E7FFFFFFFFFFFFFFFF2B
:1019F0007C25002000000B4000800B4019170010D0
:101A00006B6918461A69029390470028B9D0029B67
:101A1000D3E9002301E700BF2DE9F84F364C2569D3
:101A20002DB1BDE8F84F0A213448FFF7FBBDDFF8C0
:101A3000E48003260321404600F078FAC4F80C80C5
:101A4000FFF7D4FA4FF0504C2D4B26701844DCF8B9
:101A500000300F216370636961801D834FF00405BE
:101A6000A3F878504FF00505A3F890504FF0060505
:101A7000A3F8A8504FF007050E21206108274FF664
:101A8000FF724FF00A0EA3F8C0504FF001094FF05B
:101A90000C0C4FF0020B4FF0090A0D204FF00B0514
:101AA000A3F868111749A280A3F808E1A160A3F880
:101AB00048B0A3F8F0A0A3F82051A3F838C1A3F8C8
:101AC0005001A3F83090A3F86060A3F8D8701A8092
:101AD0000D4B3046C8F820700C49DC60FFF71AFB4C
:101AE00049463046FFF7D2FA094B0A211F600348E6
:101AF000BDE8F84FFFF796BD6C130020B825002015
:101B0000A41F0020FFFF10007C25002019170010E3
:101B100040200B4000000B40004870476C13002031
:101B20002DE9F0419DF82050044617461E4635B970
:101B300000F016FA874266EB0101002957DB2169A4
:101B4000EFF3108072B6D1E8CF2F0123002AFAD12B
:101B5000C1E8423F002AF6D1BFF35F8FB4F90220FB
:101B6000D4F814C002EB4201002A4FEAC10E0CEB7C
:101B7000C10102DB3CF80E3063804FF0000823699E
:101B8000C3E88F8F80F31088424533DB4888069B7B
:101B90000130C0F30E00012838BF01200B61079B04
:101BA00048804B61C1E9027640EA02402369EFF3C5
:101BB000108172B6D3E8CF6F0125002EFAD1C3E8A9
:101BC000465F002EF6D1BFF35F8FA3882CF80E304E
:101BD000A2802369C3E88F8F81F310880122E36814
:101BE000217803F501538A405A60BDE8F081284608
:101BF000BDE8F0814FF0FF30F7E700BF0146F0B5D8
:101C00000069EFF3108772B6D0E8CF5F0124002D92
:101C1000FAD1C0E8454F002DF6D1BFF35F8FB1F97F
:101C200002E04C690EEB4E0C4FEACC06BEF1000F01
:101C3000A8BFA05B4FF00005A8BF488004EBCC0C08
:101C40000869C0E88F5F87F31088AE4535DBBCF8C4
:101C50000200CCE902230130C0F30E00012838BF96
:101C60000120059BACF80200CCF81030069B40EA3E
:101C70000E40CCF814300B69EFF3108272B6D3E843
:101C8000CFCF0127BCF1000FF9D1C3E84C7FBCF1E5
:101C9000000FF4D1BFF35F8F8B88A353A1F804E04A
:101CA0000B69C3E88F5F82F310880122CB68097843
:101CB00003F501538A405A60F0BD4FF0FF30F0BD8C
:101CC0004289B2EB214F38DD42690B1403EB430329
:101CD00010B502EBC3030469EFF3108C72B6D4E8BD
:101CE000CFEF0122BEF1000FF9D1C4E84E2FBEF1B3
:101CF000000FF4D1BFF35F8F5A8889B292B28A4243
:101D000007D000230269C2E88F3F8CF31088184681
:101D100010BD42F400425A80012300220169837100
:101D2000C1E88F2F8CF31088C268017802F5015248
:101D300003FA01F11846516010BD0020704700BF42
:101D4000407870472DE9F043861F41F1FF35B042DE
:101D500071EB050338BF002683B038BF3546044613
:101D60000F4600F0FDF8301A65EB0101012871F112
:101D7000000306DA2046394603B0BDE8F04300F020
:101D8000F9B800F0EDF8864265EB010100290ADBA5
:101D900000211C4B324600931B482B460191FFF754
:101DA0002DFF0028E6DB4FF0000EDFF868C0174972
:101DB000174ADCF824309D4205D8DCF82800B042F0
:101DC000D8D29D42D6D10B68EFF3108872B6D3E813
:101DD000CF9F0120B9F1000FF9D1C3E8490FB9F144
:101DE000000FF4D1BFF35F8F10780B68C0B2C3E867
:101DF0008FEF88F310881378834200D120BF20BF73
:101E0000D7E700BFCD1600106C130020B8250020C6
:101E1000FA25002000000B4010B5044600F0A0F8A1
:101E20004FF47A73E4FB0301BDE810400029BCBF06
:101E30004FF0FF306FF00041FFF784BF2DE9F0470E
:101E400005460C4682B0EFF30587FFB2002F51D153
:101E5000324ED6E900238B4208BF82423CD0DFF8E5
:101E6000C880D8F80CA098F80090504600F070F8A0
:101E700009F104095AF829301B1A281A64EB0101E8
:101E8000984271F1000327DA00F06AF8854264EBAA
:101E90000101002915DB224B404600932A462346C8
:101EA0000197FFF7ABFE011E0BDD1E4BC6E9005488
:101EB0005A6A94422FD89B6AAB422AD31A48FFF73A
:101EC000FFFE184B586A844218D89B6AAB420BD36A
:101ED000012002B0BDE8F08720BF124A506A844258
:101EE0000CD8936AAB42F3D2201A18BF012002B07B
:101EF000BDE8F0870B4A506A884203D2002002B046
:101F0000BDE8F087936AAB42E2D2401A18BF0120C5
:101F1000DFE79442D2D120BFD0E700BF8813002072
:101F2000CD16001000000B406C13002010B4054BC0
:101F3000054C064AA04214BF1846581C5DF8044BD5
:101F4000FEF7D8BF0021002000800B40787B0010F6
:101F5000416A0B46826A416A8B42FAD11046704749
:101F6000034B596A0A46986A596A9142FAD17047F6
:101F700000000B40074A536A9942FCD8994207D1A6
:101F8000044B02E05A6A914202D19A6A8242F9D322
:101F9000704700BF00000B4000EB400C4FEA8C0C78
:101FA0000CF1804C0CF5803C70B5DCF80440A0F1DD
:101FB000040EB4F5803F38BF4FF480345FFA8EFED4
:101FC00038BFCCF80440BEF1010F29D94FF40066A8
:101FD000244D0CF54054266055F82060BEB9DCF85D
:101FE00000400CF5805684EA421202F0E002BEF195
:101FF000010F326028D94FF4006145F820304FF4CA
:1020000080330CF500521160CCF8043070BD6C695F
:10201000B4FBF6F4013404EB4404033CFDD2DEE7E8
:102020000129D3D103250CF540542560DCF8084084
:10203000E407FBD5DCF800400CF5805684EA421238
:1020400002F0E002074D32600122DCF800404C4013
:1020500004F00304346002FA01F1DCF808200A42BB
:10206000FBD0C8E704210020014B53F82000704743
:102070000421002070B4039C0568240344EA034350
:102080001B4C002DB4FBF1F4B2FBF4F21FDB194D35
:10209000194CA8420CBF4FF400454FF48045174E31
:1020A000256004F580542560B46835EA0404FBD14A
:1020B000212500F5405404340160826025600268E7
:1020C000002AFCDA0822C360226070BC70470468F2
:1020D00004F03F048C42DAD18468C4F30B049442C8
:1020E000D5D1C46804F4EE249C42D0D1EDE700BF02
:1020F000001BB700008005400020024000000240A5
:1021000030B44FF080441D4B1C60E0B11C4CA3F573
:102110004053DC611B4C40F0010044401C6259629A
:1021200098624FF080454FF0E061144B1648174C11
:102130001D60846019604AB930BC4FF00042A3F5BD
:1021400080531A607047124BD861EAE74FF47A73F4
:1021500003FB02F2B2F1807F09D20E4B1A604FF0FE
:10216000804130BC0A480C4B4260196070476FF0E8
:102170007F4308491A460B60F1E700BF00B00D40ED
:10218000D3C007B02D3FF84F00A00140F3FFFF017F
:1021900000800D406C25002000A00D40012300EBC5
:1021A0004000800000F1804000F584104160036031
:1021B000704700BF4FF0000C30B5134683B00446A3
:1021C0000D46BCF81620002141E800F101934B02B6
:1021D00054BF1021042144F25220904786462A46DB
:1021E0000A212046F446019B03B0BDE83040604719
:1021F0000023DB8A002242E800F2520201D41021BF
:1022000018470421184700BF002808B502DB62B157
:1022100041F030018B0603D50023DB7C022B07D075
:1022200002464FF48170FFF7C5FF41F02001F3E74C
:1022300002464FF49170FFF7BDFF00BF034AD2F88A
:102240002838002BFBD0BFF35F8F704700000E4093
:102250000021044B044ABFF35F8F43F8041B9342F1
:10226000F9D170470C080E402C080E4010B44FF402
:102270008D704FF42A64064A064B07491460D060FB
:1022800019605368002BFCDA5DF8044B704700BFFF
:102290000080044000A0044000B0FA00704700BF76
:1022A00008B50148FEF70EFE9C7B001038B5054CC2
:1022B000054DAC4204D254F8043B9847AC42FAD3E3
:1022C00038BD00BFD8790010187A001010B4074844
:1022D000074C084B084A094904601A608B6832EAC7
:1022E0000303FBD15DF8044B704700BF00200240A0
:1022F0007F3BEFEF00300240F6FFF30300000240A7
:10230000044BDB6CB3F5004F03D14FF48022024B3A
:10231000DA64704700001150002011504FF0E022A5
:10232000044BD2F8881D0B43C2F8883D10EE3004F0
:10233000704700BF030330006FF06041044B054A53
:1023400019609368DB4333F06043FAD1704700BFF4
:10235000003002400000024010B545F25320FFF764
:1023600047FFBDE8104003460420184710B545F26A
:102370005320FFF73DFFBDE81040034601201847FA
:10238000FEF758BE38B52B492B4B2C4D5B1A9C08D9
:10239000442C224628BF44222846920005F014FB14
:1023A000432C41D8C4F1430105EB84030529244A99
:1023B000C3F38003C4F1440016D9C3B345F8242005
:1023C00004F1010CC01A234405EB8303410803EB1D
:1023D000C101C3E9002208339942FAD120F0010378
:1023E00098420CEB03041FD0432C45F8242004F141
:1023F000010319D0422C45F8232004F1020313D025
:10240000412C45F8232004F103030DD0402C45F85E
:10241000232004F1040307D03F2C45F8232004F1C6
:10242000050301D045F82320064B9D6038BDA44626
:10243000C8E700BF000000101001001000000020DD
:102440001101001000ED00E00023F0B52B4C83B02B
:10245000C4F88430FFF70AFF0122294BDA63636C6A
:10246000012BFCD10321264A244B11639D6B012DC6
:10247000FCD1052302271E4600242946214A224872
:102480000097FFF7F7FD29463346204A204800967B
:10249000FFF7F0FD3946224604201E4BFFF77CFD76
:1024A0002946224630461C4BFFF776FD224608207F
:1024B00021461A4BFFF770FD224609202146174B93
:1024C000FFF76AFD224606202146134BFFF764FD05
:1024D000114B224607202146FFF75EFD0420FFF73F
:1024E000C3FD0F4DA5FB0035AD0CE0B2294601340C
:1024F000FFF754FE062CF8D103B0F0BD00000140F8
:1025000000300140002F685900000540008C8647CC
:1025100000800540001BB70080D1F008006CDC0291
:1025200083DE1B4386B003B451FC0804CDE90201ED
:1025300051FC0904CDE9040151EC0A04CDE906017E
:1025400003BCF047BDE800504EEC00C4BDE80050AD
:102550004EEC01C4BDE800504EEC02C400BD0000CA
:1025600000B5FFF7DFFF02E010FE30F4F8D441ECD5
:10257000100443EC112400EE010410EE010480EE7F
:10258000200451EC1004704700B5FFF7CBFF02E0C8
:1025900010FE30F4F8D441EC100443EC112400EEAA
:1025A000010410EE210480EE200451EC3004704749
:1025B00000B5FFF7B7FF02E010FE30F4F8D410B515
:1025C00041EC100443EC112451EC040453EC0524B9
:1025D000A0FB024C5FF0000EE0FB03CEE1FB02CE5D
:1025E0004CEC20440024E1FB03E444EC30E480EEB6
:1025F000200451EC500410BD00B5FFF793FF02E03A
:1026000010FE30F4F8D441EC100443EC112451ECEA
:102610002104A0FB01126FEA820252FB100052FB60
:1026200012F252FB1000A0EBD07C53EC04245CFBB4
:1026300013F153EC1524A1FB022001FB030053EC22
:102640004424A2EB000050FB1CF24FEA111312EBE2
:10265000017043EBE27140EA515020EA915020F0C2
:10266000070053EC7524A0FB023C53EC752400FBDF
:1026700003CC01FB02CC53EC0424ACEB824C40EACB
:102680005C70A0F1010041EC400480EE200451ECAC
:102690007004704700B5FFF745FF02E010FE30F40C
:1026A000F8D440EC700400EE010410EE210480EE3A
:1026B000200451EC3004704700B5FFF733FF02E00F
:1026C00010FE30F4F8D440EC600400EE010410EE8B
:1026D000210480EE200451EC3004704700B5FFF770
:1026E00021FF02E010FE30F4F8D441EC800400EE4B
:1026F000010410EE010480EE400410EE1304704754
:1027000000B5FFF70FFF02E010FE30F4F8D441EC03
:10271000800400EE010410EE010480EE400410EE8F
:102720003304704700B5FFF7FDFE02E010FE30F401
:10273000F8D441EC100443EC112400EE010410EE37
:102740003004C0F30070704700B5FFF7EBFE02E005
:1027500010FE30F4F8D443EC102441EC110400EEE8
:10276000010410EE30F48CBF01200020704700BF40
:1027700000B5FFF7D7FE02E010FE30F4F8D443ECCA
:10278000102441EC110400EE010410EE30F42CBFD3
:1027900001200020704700BF00B5FFF7C3FE02E034
:1027A00010FE30F4F8D441EC100443EC112400EE98
:1027B000010410EE30F42CBF01200020704700BF50
:1027C00000B5FFF7AFFE02E010FE30F4F8D441ECA4
:1027D000100443EC112400EE010410EE30F48CBF21
:1027E00001200020704700BF10B5044604F05AFCD9
:1027F00028B10346034A2344934200D810BD02483F
:10280000FEF760FB00000820A87B00109A4238BF4A
:1028100088547047704700BF2DE9F84F9A460D9BCA
:1028200017469A0706468B46DDF8288011D1DDE968
:102830000B3293420DD213463C460B9A9D1A3D44EF
:1028400022465346594620200134B047AC42F7D1C6
:1028500000E03D460B9B73B108EB030404EB050954
:10286000A9EB040214F8010D53465946B0474445FC
:10287000F6D10B9B1D440D9B9B070ED50C9BEF1BAC
:10288000BB420AD91C462A465346594620200137E6
:10289000B047BC4205F10105F5D82846BDE8F88FE0
:1028A0002DE9F04F0F9EDDF824E016F0020F0A9C90
:1028B0009DF82C900E9DDDE90C872CD1002D74D154
:1028C000BC4206F0010B80F0CB801F2C88BF202477
:1028D00000F2C68004F1FF3C4FF0300AF44401E0FE
:1028E000202C04D00134A7420CF801AFF8D8BBF17A
:1028F000000F10D0A5420ED9202C2DD004F1FF3CA2
:102900004FF0300AF44401E0202C25D00134AC42D1
:102910000CF801AFF8D116F0100F38D016F4806F14
:1029200026D10CBBB8F1100F7FD0B8F1020F00F028
:10293000928030248EF800400124B9F1000F2BD092
:102940002D270EF804700134CDE90B56CDE909E4CA
:10295000BDE8F04FFFF760BF16F0100F4FF02004F6
:10296000F2D016F4806F03D1A74249D0A54247D0D8
:10297000B8F1100F4ED0B8F1020F39D0202CE3D0AF
:102980004FF0300C0EEB040787F800C00134202C08
:10299000DAD0B9F1000FD3D177071DD43707D3D5DB
:1029A00020270EF804700134CEE716F0010B0DD08D
:1029B000B9F1000F22D116F00C0F1FD1BC4299D2F1
:1029C0001F2C87D9202DC7D82024A4E7BC42A2D22F
:1029D0001F2C7FF67FAFF7E72B270EF8047001342A
:1029E000CDE90B56CDE909E4BDE8F04FFFF714BF80
:1029F000202CA9D00EEB0407013440E0013DDDE7B7
:102A0000671E8FD0B8F1100F2FD0B8F1020F35D05C
:102A10003C46B5E7B7060FD4202C95D00EEB040C3E
:102A2000013478278CF80070A8E7B4060ED4782417
:102A30008EF800400124A3E7202C85D04FF0580CDD
:102A40000EEB040787F800C0013497E758248EF88E
:102A50000040012494E762248EF8004001248FE7AF
:102A6000BBF1000F08BF002555E716F0200FA4F1B9
:102A70000204E3D10EEB040C3C46D2E777444FF05E
:102A8000620C87F800C079E700B9704701F086BA98
:102A900010B1D1E900311847704700BF00000000B5
:102AA0002DE9F04F2DED048B9BB02A9CDDE92889A0
:102AB00009942B9C83461D460D940C920C4642466D
:102AC0004B4640464946DDF8B0A0FFF72FFE0028F0
:102AD00040F0D680404649464FF0FF32744BFFF736
:102AE00073FE002840F0CC80404649464FF0FF324C
:102AF0006FF48013FFF72CFE002840F0C1804046A1
:102B0000494600220023FFF723FE002840F0C18140
:102B1000CDE90A89DDE90A231F461AF480631646C7
:102B20001193099B08BF0623099356EA070340F057
:102B3000C3801AF4006E00F0A4819FED5B7B00233C
:102B40008DED0E7B1093099B109A00269342D2BF05
:102B50000023A3EB020E0EF1FF3309934AF4806ABF
:102B600010960D9BB34294BF00279F1B1AF00203DF
:102B7000119302D0002E18BF0027109B3BB1DDE956
:102B80000A01DDE90E23FFF73BFDCDE90A014046CE
:102B9000494600220023FFF7DBFD30B1DDE90A01E1
:102BA000024601F10043CDE90A239DED0A7B099B12
:102BB0008DED007B02932AF40063049321462B469B
:102BC00058460C9A039700F09BF98046002E51D08E
:102BD0001AF0200F424614BF452065202B4621469F
:102BE000D847109A0DF1480C82EAE273A3EBE27326
:102BF0004FEAD27E002762461846DFF8B89008F107
:102C0000010806F1FF3A01E0202F0FD00646A9FB8C
:102C10000031C90801EB8103A0EB43033033092ED7
:102C2000084607F1010702F8013BEDD80523002013
:102C300006930A234246CDE9033021462B465846E7
:102C4000CDE9017ECDF814A0CDF800C0FFF728FE35
:102C5000119B804673B10C9B0D9FC61AB74209D9D0
:102C600042462B46214620200136D847B74208F17C
:102C70000108F5D840461BB0BDEC048BBDE8F08FD1
:102C80000D9B21462B9358462B46099C0C9ACDE967
:102C90002889CDF8B0A02A941BB0BDEC048BBDE808
:102CA000F04F00F02DB900BF000000000000000050
:102CB000FFFFEF7FCDCCCCCCC7F30A50A0F2FF30A2
:102CC000FFF7ECFC8AA3D3E90023FFF775FC8AA386
:102CD000D3E90023FFF748FCC7F3130341EC180BBB
:102CE00043F07F51304600227B4B41F44011FFF707
:102CF0004FFC6BA3D3E90023FFF75EFC02460B46B3
:102D000051EC180BFFF730FCFFF7ECFC1090FFF7CD
:102D1000C5FC65A3D3E9002306460F46FFF74CFC2C
:102D200000226E4BFFF720FCFFF7DCFC0346394620
:102D300030460E935EA3D3E90023FFF73DFC064621
:102D40000E980F46FFF7AAFC5BA3D3E90023FFF719
:102D500033FC02460B4630463946FFF719FC024663
:102D60000B4606460F46FFF727FC324641EC180B90
:102D70003B4630463946FFF7F7FB002241EC190B82
:102D8000574B51EC180BFFF73BFC0022554BFFF75C
:102D9000EBFB02460B4651EC180BFFF731FC00220F
:102DA000514BFFF7E1FB02460B4651EC180BFFF7C6
:102DB00027FC32463B4606460F4600204FF0804136
:102DC000FFF7E6FB02460B4630463946FFF7CCFBE1
:102DD00002460B4651EC190BFFF712FC0022434B45
:102DE000FFF7C2FB0E9B002203F2FF363305FFF70D
:102DF000E3FB06460F46DDE90A0132463B46CDE9D4
:102E00000E67FFF7A5FC60BB31463A46109B633363
:102E1000C72B34BF042605261AF4006F3FF4A1AE79
:102E200051EA02033FF48FAEDDE90A0124A3D3E99E
:102E30000023FFF7B5FC48B1DDE90A0122A3D3E97D
:102E40000023FFF785FC00287FF47DAE099B002B53
:102E50003FF487AE119A002A3FF483AE013B0993F9
:102E60007FE6109B0022013B109330461D4B3946F4
:102E7000FFF7C6FB0B4602460146CDE90E231A4674
:102E8000C4E79FED137B04268DED0E7BCDF840E06B
:102E900067E609F10043CDF828800B933AE600BFBE
:102EA00061436F63A787D23F71A379094F930A40AB
:102EB0001655B5BBB16B0240EF39FAFE422EE63F24
:102EC0002D431CEBE2361A3F0000000080842E41A7
:102ED00000000000000000000000F83F0000E03F9C
:102EE00000002C4000002440000018400000F03F8B
:102EF000FB799F501344D33FB3C8608B288AC63FE9
:102F00002DE9F04F2DED028B95B0DDE922450695B8
:102F1000249DDDE92067CDE90701CDE9092330468D
:102F200032463B4639460595FFF700FC002840F045
:102F3000C481304639464FF0FF326FF48013FFF7FB
:102F400007FC002840F00D81304639464FF0FF3233
:102F5000BF4BFFF739FC002840F0DD80B8A3D3E970
:102F6000002330463946FFF72FFC002840F0C1808F
:102F7000B5A3D3E9002330463946FFF7E9FB002823
:102F800040F0B7803046394600220023FFF7E0FBCF
:102F9000002840F0DA802B460B9013F4806F08BFB6
:102FA00006243021A2460CABA4F1200206E00AF16F
:102FB000FF3A524503F8011B00F03181BAF1090FC5
:102FC000A4EB0A05F3D839463046FFF78BFBA14B3B
:102FD000044603EBCA0393ED008BFFF75FFB024649
:102FE0000B4630463946FFF7D3FA53EC182BFFF760
:102FF000E3FA89468046FFF787FB8346FFF760FBCD
:1030000002460B4640464946FFF7C2FA0022924B61
:1030100080468946FFF7D8FB002800F0F1800BF1CD
:10302000010B5846FFF74CFB02460B4651EC180BC0
:10303000FFF7A2FB10B14FF0000B0134BAF1000F03
:1030400040F09A802046FFF729FB02460B463046A7
:103050003946FFF79DFA00227F4B06460F46FFF7E1
:1030600077FB40B93046394600227B4BFFF7ACFB7B
:10307000002800F016816A1E0CAB78491A44202DF6
:103080004FEAE47300F0938081FB0460C3EBA0037C
:1030900003EB8300A4EB400404F1300001351C462F
:1030A00002F8010F002BEAD1059B03F00303012B6B
:1030B00000F08380202D0AD00B9B002B00F0B18004
:1030C0002D2205F150036B4403F8202C0135059B9C
:1030D0000CAC0393069B0094CDE90153DDE9070195
:1030E000DDE90923FFF798FB15B0BDEC028BBDE8C5
:1030F000F08F059BCDE92067DDE907012493069B4E
:1031000022942393DDE9092315B0BDEC028BBDE8C1
:10311000F04FFFF7C5BC05F004042395504D002C7B
:10312000504C18BF2C46DDE9070120940CBF032446
:103130000424069B2293DDE90923219415B0BDECFC
:10314000028BBDE8F04FFFF767BB01213B463246DB
:103150000B9100200021FFF71BFA2B4606460F4675
:103160001BE7069C239522940424DDE90923DDE96D
:1031700007013D4D2095E0E7681E0CAB3B4F18441E
:103180000FE0A7FB0B32D20802EB8203ABEB430349
:103190003033BBF1090F00F8013F69D9B2469346BD
:1031A0000D46202D0AF1FF3605F10101E9D1059BFD
:1031B000202503F00303012B89D1069B002B3FF44C
:1031C00079AF0B9B1BB9059B13F00C0F02D0069B2C
:1031D000013B0693069BAB427FF66CAF202D0DD0D2
:1031E00030226B1E0DEB02010B44069901358D4216
:1031F00003F8012F3FF45EAF202DF7D1202566E7BD
:10320000404649460022144BFFF7A2FA00287FF4FB
:1032100015AFBBF1000F4BD10BF1010B0EE72025D1
:10322000D1E6059B5A0741D41B077FF550AF2022FA
:1032300005F1300313446B4403F8202C013546E7B5
:103240000000000065CDCD410000000065CDCDC17E
:10325000FFFFEF7F707C00100000E03F676666664E
:103260005C7C0010587C0010687C0010CDCCCCCC6D
:1032700020299CD05EB30CAB5A1930200D46013585
:10328000202D02F8010F92D0EB430B4413EB0A0FF1
:10329000F5D12E2205F150036B4403F8202C0135A3
:1032A000E9E6E1077FF5E7AE0134E4E62B2208E723
:1032B0001BF0010F3FF4C2AEAEE7069C23952294AB
:1032C000044D0324DDE90923DDE9070152E70D463A
:1032D000DFE700BF647C00102DE9F04F9BB0249C19
:1032E000844D0994844C0F1E18BF834625601878BE
:1032F000824D904608BFAB46002800F0C4821C46B1
:103300004FF0000A0AE0524643463946D8470AF1D0
:10331000010A01342078002800F0C9802528F2D164
:103320000021631C1C4613F8010BA0F12002102A97
:103330000AD8DFE802F03C09093909090909090935
:103340000936093309093000A0F13003092B40F296
:1033500090802A2800F0B98000252E2800F098805F
:1033600000230A93A0F16803122B27D8DFE813F09B
:103370001F0126001A01260027012600260026002C
:103380002600260026002600220026002600260011
:1033900026002600220041F00101C3E741F00201AE
:1033A000C0E741F00401BDE741F01001BAE741F088
:1033B0000801B7E7607841F480710134A0F125037A
:1033C000532B00F28E80DFE813F01C018C008C0080
:1033D0008C008C008C008C008C008C008C008C008D
:1033E0008C008C008C008C008C008C008C008C007D
:1033F0008C008C008C008C008C008C008C008C006D
:103400008C008C008C008C008C00C5010201C50171
:103410008C008C008C008C008C008C008C008C004C
:103420008C008C008C008C008C008C008C008C003C
:103430009B008C008C008C008C008C008C008C001D
:103440008C008C009B008E019B00C5010201C50110
:103450008C009B008C008C008C008C008C009B00EE
:103460006E018C008C0026018C009B008C008C006F
:103470009B00002505EB850500EB450514F8010FC1
:10348000303DA0F13003092BF4D92E287FF468AF2A
:10349000607841F48061A0F13003092B04F101024E
:1034A00040F23F812A2800F04B81144658E75446E9
:1034B000D04501D808F1FF3A43465246394600202C
:1034C000D84720461BB0BDE8F08F099B607853F8C1
:1034D000045B0134002DBCBF41F002016D42099331
:1034E0003BE752464346394601340AF1010AD847C0
:1034F00010E700BFD9320010682500201528001001
:10350000782800F07A81582800F0C0816F2800F0F8
:103510000E82622800F06A8321F0100369284FF0C0
:103520000A090B9340F00682490500F16D810B9B5F
:1035300013F4007040F0088213F4807140F0E382CD
:103540005E06099A00F1498213F0800F52F8043B9D
:1035500000F097831BB2099283EAE372A2EBE37255
:1035600092B2D80F0D90002B40F065820B9820F09E
:10357000100340050B9340F15E8212AB0C93524650
:103580000B9BCDE905530A9BCDE903930D9BCDE938
:1035900001130C9B0093434639465846FFF780F9C8
:1035A00082467EE0607841F40071013406E760787D
:1035B000682800F0638141F080010134FEE6607804
:1035C0006C2800F0568141F480710134F6E60A9BC4
:1035D000462808BF41F020010293099BCDE9035121
:1035E000073323F00705B5EC027B524643463946C4
:1035F00058468DED007B0995FFF782FC0134824629
:1036000088E60AF1010052464346824639462520A3
:103610000134D8477EE6099B53F8046B0D930A9B4F
:103620003078002B00F0D880002800F032835A1E3A
:103630000132B146324401E0914503D019F8013F0F
:10364000002BF9D1A9EB0603099311F480630B93C6
:1036500005D0DDE90932934228BF1346099311F0E2
:1036600002030C9300F04981002800F034810B9B89
:10367000002B00F0B7800A9B52465344994608E05D
:1036800043463946D84716F8010F0AF1010A10B12E
:103690005246D145F4D10C9B002B40F01C810D9B70
:1036A0000993013436E6099850F8043B002B74D096
:1036B00041F0210512AA164600210C9202E02029B1
:1036C00074D0134603F00F0C6246BCF1090F94BF8F
:1036D000303237320F2B06F8012B01F101014FEA8E
:1036E0001312ECD862E08B0740F1DA80DDF8249009
:1036F000524659F8040B43463946C0B2D847012D0B
:103700000AF1010688BFAA4440F29181324643463D
:10371000394620200136D8475645F7D1CDF82490B8
:10372000BFE7002303EB830300EB430312F8010F11
:10373000303BA0F13004092CF4D914460A9311E669
:10374000099BA07853F8042B0234099322EAE27310
:103750000A9307E600F0DF03472B08BF00F0FD00E7
:103760000A9B08BF41F40061452808BF41F02001D1
:103770000293099BCDE90351073323F00705B5EC0C
:10378000027B52464346394658468DED007B0995EB
:10379000FFF786F901348246BCE521F010054E059D
:1037A00045F0210586D5194612AB0C930A9B52466B
:1037B00004930C9B0191009308230593102303931A
:1037C0000023099002933946434658460695FFF771
:1037D00067F8013482469DE56FF0010200287FF40E
:1037E00027AF31E7524643463946D84716F8010F0E
:1037F0000AF1010A0028F5D14DE74FF0100921F038
:103800000C0349050B9303D50B9B23F001030B938A
:1038100069283FF48CAE64283FF489AE0B9B13F407
:10382000007040F0528113F4807140F0C6815E0652
:1038300040F1F080099B53F8042B0993D2B2002A7F
:1038400040F01E810B9820F0100340050B9340F1CF
:103850001781114612AB0C930B9B0191CDE90553D7
:103860000A9BCDE9039352460C9B009300230293DD
:1038700091E6A07841F4407102349FE5A07841F0D0
:10388000C00102349AE50446824611E621F00C0399
:1038900043F020030B934B054FF01009B4D4BDE760
:1038A000012D40F2F4810AF1FF331D445246434694
:1038B000394620200AF1010AD847AA45F6D1099EC7
:1038C000434656F8040B2A463946C0B2D84705F19C
:1038D000010A0996E5E6099B56469D427FF6DFAE52
:1038E00005EB0A00A0EB030A324643463946202086
:1038F0000136D8475645F7D1D1E6099A954202F1EB
:10390000010340F2C88105EB0A09A9EB02095246FE
:103910004346394620200AF1010AD847CA45F6D164
:1039200030786B1C099300287FF4A1AEB7E64FF006
:1039300008090B91642818BF0B997FF460AF0B9BAB
:103940005A053FF561AFF2E5099B073323F0070302
:103950001A4610465B6850F8082B002B194616468D
:10396000099060DB0846D90F13430D913BD00B9BA8
:10397000002113F0200F14BF4123612312AA0A3B38
:10398000CDE90EA51094CDF844B00D4614468246FC
:103990009B460C9203E0202D17D006468A463046FF
:1039A0004A465146002304F007F8D2B2092A02F130
:1039B000300388BF02EB0B03DBB24E4504F8013B3A
:1039C0007AF1000305F10105E5D22A46DDF838A0B9
:1039D000109C0F9DDDF844B00FE052F8043BDBB2C1
:1039E00009921A46BDE50B9A22F0100352050B937B
:1039F000BDD500231A4612AB0C930B9B0192CDE967
:103A000005530A9B5246CDE903930D9B02930C9BF1
:103A10000093C0E513F0800F099B53F8042B099322
:103A200018BF92B20BE7564263EB43019AE7B246E6
:103A3000CDF8249035E60B9B13F0200F14BF4FF008
:103A4000410E4FF0610E12AB9C460C93AEF10A0E84
:103A500003E020293FF493AD3246B2FBF9F609FBAF
:103A60001620C3B2092803F130008ABF7344C3B2E1
:103A7000DBB24A450CF8013B01F10101E9D27EE5D8
:103A80000B9B13F0200F14BF4FF0410E4FF0610E4F
:103A900012AB9C460C93AEF10A0E03E020293FF4D2
:103AA000DBAE3246B2FBF9F609FB1620C3B2092899
:103AB00003F130008ABF7344C3B2DBB24A450CF84D
:103AC000013B01F10101E9D2C6E6099B073323F06E
:103AD00007035A6853F8086B1046099356EA020325
:103AE00035D10B9A22F0100352050B932FD50023EA
:103AF0001A4612AB0C930B9B0192CDE905530A9B1E
:103B0000CDE90393AFE6099B1A4652F8043B0D92A8
:103B1000D90F83EAE372A2EBE3720991002B68D11B
:103B20000B9921F010030B934B0562D512AB0C934C
:103B30000B9B5246CDE905530A9BCDE90393099BA4
:103B4000CDE901030C9B00930D9B099323E50B9B8F
:103B5000002113F0200F14BF4123612312AA0A3B56
:103B6000CDE90DA50F94CDF840B00D461446824620
:103B70009B460C9203E0202D17D006468A4630461D
:103B80004A465146002303F017FFD2B2092A02F138
:103B9000300388BF02EB0B03DBB24E4504F8013B58
:103BA0007AF1000305F10105E5D22A46DDF834A0DB
:103BB0000F9C0E9DDDF840B09DE7099B53F8042B48
:103BC0000993002A39D10B9921F010030B934B056F
:103BD00033D512AB0C930B9B5246CDE905530A9B90
:103BE0000190CDE903930C9B00933FE64FF002094F
:103BF0009FE60B9B13F0200F14BF4FF0410E4FF0C8
:103C0000610E12AB9C460C93AEF10A0E02E0202826
:103C10008ED03246B2FBF9F609FB1621CBB2092948
:103C200003F130018ABF7344CBB2DBB24A450CF8D2
:103C3000013B00F10100EAD27AE70B9B13F0200F61
:103C400014BF4FF0410E4FF0610E12AB9C460C9327
:103C5000AEF10A0E02E02028BDD03246B2FBF9F6E2
:103C600009FB1621CBB2092903F130018ABF734445
:103C7000CBB2DBB24A450CF8013B00F10100EAD2BD
:103C8000A9E7099283EAE372A2EBE37269E455467D
:103C900015E60990D9E4099300287FF4E8ACFEE426
:103CA0000EB410B585B007AC54F8043B01464FF094
:103CB000FF32009404480394FFF70EFB05B0BDE803
:103CC000104003B0704700BF0D28001070B5944637
:103CD0001E4605460C4684B04FF0FF32634602A9EB
:103CE00000960348CDE90254FFF7F6FA04B070BD20
:103CF000912A001010B5094B84B01C684CB10346E2
:103D000000914FF0FF3203A90548A047012004B0FD
:103D100010BD00F081F9204604B010BD68250020D8
:103D2000892A001000BEFDE7704700BF074A03461E
:103D3000106838B1064903448B428CBF4FF0FF3006
:103D400013607047034908461160F3E764210020BF
:103D5000000008200026002008B5FFF7E3FF00BFA1
:103D600038B5064D064CFEF7A1FAAC4204D254F821
:103D7000043B9847AC42FAD338BD00BF1C7A001010
:103D8000187A00100368084611461847437D2DE94C
:103D9000F04782460F469146002B44D0002A2ADD88
:103DA000002401252046DFF88C804E1E2CB333788A
:103DB00016F8012FA3F10D03B3FA83F30A2A4FEA91
:103DC000531320D02B46994504F1010405F1010558
:103DD000ECDC814505DDA9EB0001DAF80030384460
:103DE00098474F4417F8013CA3F10D03B3FA83F34E
:103DF0005B098AF81430BDE8F08716F8012F9AF8AD
:103E000014300A2ADED1002BDCD1A04204DA211AB8
:103E1000DAF800303844984740460221DAF800309A
:103E200098472846CEE73846DAF800301146BDE814
:103E3000F0471847C07C0010F8B50B685A1C802A60
:103E40000B440A60187100D0F8BD0D4B0D461C687C
:103E50009CB10C4E0F1D01E0246974B12368002B46
:103E6000FAD033680BB1A342F6D1204639462A680E
:103E7000FFF78CFF2469002CF0D100232B60F8BDE4
:103E800054210020602100202DE9F04782B00D462A
:103E9000924699460746FEF763F82F4A821841F189
:103EA0000003002BBCBF4FF0FF326FF000432B48E4
:103EB00003F072FD6B1C804603D1384603F0CEFB45
:103EC0000546274B274E1C68274BB9F1000F08BF4A
:103ED0001E46B4B1BAF1000F1AD1DFF8909001E09C
:103EE000246974B12368002BFAD0D9F800300BB1E3
:103EF000A342F5D120462A463946B0472469002C12
:103F0000F0D1B8F1000F1FD1284602B0BDE8F0870C
:103F10004FF00A0ADFF8549002E02469002CF0D038
:103F20002368002BF9D0D9F800300BB1A342F4D1AB
:103F300020462A463946B047204601220DF10701A6
:103F40008DF807A0B047E8E7044803F029FD2846AC
:103F500002B0BDE8F08700BF40420F00201C0020E7
:103F6000542100208D3D0010853D0010602100206F
:103F7000084A136823B90AE003F110021B6933B140
:103F80009842F9D129B9036913600161704701B101
:103F9000106070475421002000F056BAF0B583B08D
:103FA00006468DF80700FDF7DBFF174A821841F13E
:103FB0000003002BBCBF6FF000434FF0FF321348EB
:103FC00003F0EAFC124B07461C689CB1114D01E05E
:103FD00024697CB12368002BFAD02B680BB1A34273
:103FE000F6D1204601220DF10701FFF7CFFE24692B
:103FF000002CEFD117B9304603B0F0BD034803F0F1
:10400000CFFC304603B0F0BD40420F00201C002022
:10401000542100206021002038B5044603F01EFB27
:10402000012305461A4620462946FFF72DFF084B77
:104030001C682CB163682BB198472469002CF9D116
:10404000284638BD2469002CF4D1284638BD00BF6D
:10405000542100202DE9F041A2B004460D46FDF7A1
:104060007FFF274A0026821841F10003002BBCBFC6
:104070004FF0FF326FF00043224803F08DFC2B46D7
:1040800007462246204801A90196FFF71FFE019B23
:1040900006467BB91D4B1C682CB1636843B1984739
:1040A0002469002CF9D10FBB304622B0BDE8F08165
:1040B0002469F1E7DFF85480D8F80050EDB1144CD2
:1040C00001E02D6975B12B68002BFAD023680BB184
:1040D0009D42F6D12846019A02A9FFF757FE2D69A5
:1040E000002DF0D1D8F800400195D5E7054803F040
:1040F00057FC304622B0BDE8F0810195D3E700BF00
:1041000040420F00201C0020393E001054210020A6
:10411000602100200FB400B583B004A951F8040B4E
:104120000191FFF797FF03B05DF804EB04B070470F
:10413000024A034B10601960704700BFF420002052
:10414000F8200020184B70B51A68002A28D0EFF329
:10415000108172B6D2E8CF4F0120002CFAD1C2E80C
:10416000440F002CF6D1BFF35F8F00220F4C18686C
:1041700059602270C0E88F2F81F310880024002539
:104180000B4E3078FCF798FF20B90024002520461C
:10419000294670BD3078FCF79FFF2046294670BD48
:1041A0004FF47A740025EBE774250020FC250020ED
:1041B000FB250020014B1878FCF78EBFFB25002063
:1041C00038B5044600200D4601F08EFB90B3002068
:1041D00001F0A0FB70B3FDF7C3FE184A821841F14D
:1041E0000003002BBCBF4FF0FF326FF000431448B8
:1041F00003F0D2FBF0B1002001F076FB58B90021AA
:104200004FF0FF3000F086FD6FF002040C4803F021
:10421000C7FB204638BD002001F07CFB0028EED013
:1042200021462A46002001F081FB041E08BF6FF0E2
:104230000204EBE76FF00204EBE700BF40420F001F
:10424000DC25002008B5FDF78BFE0F4A821841F1EE
:104250000003002BBCBF4FF0FF326FF000430B4850
:1042600003F09AFB70B14FF0FF30002100F052FDD7
:10427000002001F0A3FB0028F5D1BDE80840034869
:1042800003F08EBB08BD00BF40420F00DC250020BC
:104290002DE9F84307460E46FDF762FE344A8218C0
:1042A00041F10003002BBCBF4FF0FF326FF0004321
:1042B000304803F071FB08B9BDE8F883002001F035
:1042C00013FB002849D0002E42DD0025DFF8A8802E
:1042D000DFF8A89013E02246002001F0B3FB002194
:1042E00004464FF0FF3000F015FD002001F066FBA2
:1042F000FDF736FEC8E900012544AE4228DD002066
:1043000001F0C4FB741B8442A8BF04467919002C39
:10431000E1D121464FF0FF3000F0FCFC204601F0D7
:104320004DFB204601F0E0FA90B1204601F0AEFBD3
:104330000028E2D1FDF714FED8F80030D8F80420A8
:1043400013EB090342F10002834272EB0103D4D262
:104350000848BDE8F84303F023BB00200021064BCA
:10436000C3E90001BDE8F843024803F019BB00BFF0
:1043700040420F00DC250020A81D002020A10700DE
:1043800030B5002185B02A4803F0F6FAF0B9294B80
:104390001A68CAB1EFF3108172B6D2E8CF5F012478
:1043A000002DFAD1C2E8454F002DF6D1BFF35F8F43
:1043B000214C1D6822785960D3B201222270C5E8D1
:1043C0008F0F81F31088CBB105B030BD00214FF0C5
:1043D000FF3000F09FFC002001F09CFA04461448D6
:1043E00003F0DEFA002CEFD0144B1B68002BEBD04F
:1043F000134A106805B0BDE830401847FDF78CFB44
:104400000446FDF7ADFD10F57A7241F10003012578
:10441000002120460B4C002BBCBF4FF0FF326FF049
:104420000043CDE901150094FDF77AFB05B030BDDE
:10443000DC25002074250020FC250020F42000202D
:10444000F8200020454100104FF0504330B585B0B2
:104450001C68FDF761FBFDF773FCA04202D0002051
:1044600005B030BD0021274B08461B7801F0CAFC7F
:1044700025480368002B42D00120FDF7BFF8034612
:10448000224C2349C0B22370FCF744FE207801215E
:10449000FCF7FCFD0E20FCF72DFE18BB1D4B012583
:1044A000C3E90000FDF738FB0446FDF759FD10F5A0
:1044B0007A7241F1000300212046174C002BBCBF4B
:1044C0004FF0FF326FF00043CDE901150094FDF786
:1044D00027FB0028C3DB01211048FFF749FD01201D
:1044E00005B030BD0120FCF78DFD01460948FDF700
:1044F000E5F800220E200A49FCF73AFEEBE7FDF74B
:10450000C1F8B9E7649E0010DC250020FB250020DF
:1045100081430010742500204541001090130020B5
:10452000B541001000487047647D00100048704796
:10453000107D001038B51A4B04461A782AB344B9D6
:1045400040F209424FF44173164D6A8015482B80A2
:1045500038BD052C21D8144B124D53F82410284691
:104560000023013903E0132B20F8022F12D011F899
:10457000012F5FFA83FC0133002AF4D10CF101030F
:10458000DBB25B0043F44073E0E71121184600F012
:1045900025F8D4E74FF44A73D8E7002038BD00BFB0
:1045A000E42500202C210020787D001000B545F284
:1045B00047308BB0FDF71CFE01220346092101A8FC
:1045C0009847DDE90332044912BA1BBAC1E9002356
:1045D0000BB05DF804FB00BFA4250020013900F0FA
:1045E000B3805D4A13784FEA231C9F2B8CBF0CF1DC
:1045F000370C0CF1300C012980F800C000F0A780C6
:1046000003F00F03092BCCBF37333033022943703B
:1046100000F09D8053784FEA231C9F2B8CBF0CF138
:10462000370C0CF1300C032980F802C000F08F80A9
:1046300003F00F03092BCCBF373330330429C37089
:1046400000F0858093784FEA231C9F2B8CBF0CF1E0
:10465000370C0CF1300C052980F804C077D003F03A
:104660000F03092BCCBF37333033062943716ED08B
:10467000D3784FEA231C9F2B8CBF0CF1370C0CF125
:10468000300C072980F806C061D003F00F03092B16
:10469000CCBF373330330829C37158D013794FEA70
:1046A000231C9F2B8CBF0CF1370C0CF1300C09290B
:1046B00080F808C04BD003F00F03092BCCBF373371
:1046C00030330A29437242D053794FEA231C9F2B7F
:1046D0008CBF0CF1370C0CF1300C0B2980F80AC0A0
:1046E00035D003F00F03092BCCBF373330330C29FF
:1046F000C3722CD093794FEA231C9F2B8CBF0CF1F3
:10470000370C0CF1300C0D2980F80CC01FD003F0D1
:104710000F03092BCCBF373330330E29437316D028
:10472000D3791A119F2B8CBF373230320F29827305
:104730000DD003F00F03092BD4BF303337331029CA
:10474000C37318BF103002D00023037070470023DA
:1047500008440370704700BFA4250020704700BFC5
:104760000022014B1A707047F92500204B79FF2B6E
:104770000BD1887948B9CB79012B07D1082A05D903
:10478000034B8A7809201A7070470020704700BFD9
:10479000F925002001207047012908D110B5114BDF
:1047A0000C461B789188994203D0002010BD01204F
:1047B00070475378012B08D0022BF6D100216422D8
:1047C0000846FDF79DFC204610BD518811F480720B
:1047D0001ABFC1F3C012480A4FF0FF3001F00301C5
:1047E000FDF712FDF925002000487047907D00106C
:1047F000012907D15378012B02D19388072B03D0CD
:1048000000207047012070471146A623014A00F09E
:1048100023BF00BFB47D00100346012201481A7077
:10482000704700BF5C7E001008B50B68B3F5966F4B
:1048300000D008BD00224FF0FF301146FDF7E4FC28
:10484000F8B500F035F90C2340271A4D1A4CAB6728
:10485000FF220E201949FCF78BFC3A460021204626
:1048600003F096F8164B0126A36280210023154A17
:104870006670A260843A278327876184C2F88430F7
:10488000C2F88030636084F8213084F83B30636282
:104890000D4BE360E36203F093F84FF000544FF4E4
:1048A00080320A490A4B2E643046EC64C5F89010F9
:1048B000DA64F8BD0000115068210020A503002033
:1048C00080001050840010500001105010D00100E2
:1048D0000020115001210E20FCF7D8BB0022024815
:1048E000114600F005B900BF88210020044B197063
:1048F00021B14FF40032034BC3F89020704700BF42
:10490000F6250020002011500B785B0602D14B7871
:10491000052B00D070474B88014ADBB2136070470B
:1049200000001150CB782DE9F04103F0030EBEF1E9
:10493000010FC3F301005BD0002791F802C0344D92
:104940000CF07F025600898806EBDC1305EB43135D
:104950004FEADC14C1F30A01D87684F0010083F831
:1049600002C019835870DF7074BB0423294803EB1D
:10497000C20305EB821C03EB0008CCF808801F5033
:104980006AB3254BD2001344CCF804303F31BEF15A
:10499000020F21F03F0136D0204A214813683444E9
:1049A000194405EB441581421160EB602DD883F06A
:1049B000A04383F480136A6843EA8E6343F00043A4
:1049C00001201360BDE8F081124813B200EBC20869
:1049D00005EB821CCCF8288040F833705AB90023CC
:1049E000104A05EB44140120E2606360BDE8F081E9
:1049F0000020BDE8F081D20002F1A04202F5801251
:104A0000CCF82420C2E74900C6E7FDF749FC00BF07
:104A100068210020800010500400105070250020F4
:104A2000FF0F10500001105002F0CABF8C4608B5AD
:104A3000114607481A460CF07F034FEADC1C0CEBCA
:104A4000430C00EB4C1000F053F8012008BD00BFF0
:104A50006821002011F07F000AD0C909074B01EB43
:104A600040004FF40062002103EB401002F080BFD1
:104A7000034BC909C1F102029A66EFE768210020E1
:104A80000020115011F07F0300D17047002210B4B4
:104A9000C809064C00EB430004EB40136FF40061BF
:104AA00018465DF8044BDA7002F062BF68210020FE
:104AB0004FF0805209480A4908B50A4B02600A6063
:104AC0009968C94311F08051FAD14FF480520648D9
:104AD00002F05EFF0922054B5A6708BD0020024024
:104AE0000030024000000240000010500000115051
:104AF000837E10B50446BBB94FF0000C012320465D
:104B0000A2822161A4F816C0A37602F051FF20B161
:104B10004FF40032084BC3F89020204602F030FFDB
:104B200028B10123237710BD02F02EFFE4E72046D1
:104B3000BDE8104002F04CBF002011502DE9F041BB
:104B40004FF000081C4C0746424623781B4E1C4D74
:104B50000DE02B6813EB421325D0DB6838469847ED
:104B600008F1010823785FFA88F2934206D3934252
:104B7000A2EB0303EDD806EB4313EEE7114C5422EE
:104B80000021204602F004FF4FF0FF33251D636033
:104B9000C5E90133EB6004F114002022BDE8F041C7
:104BA000FF2102F0F5BE4FF0E023D3F8F03DDB0724
:104BB00000D500BEBDE8F081F5250020D87E0010AC
:104BC000001E0020D01F0020704700BF704700BFAC
:104BD0000020704700207047704700BF704700BF3B
:104BE000704700BF704700BF024B5878003818BFAD
:104BF00001207047D01F0020024B1878C0F38000BE
:104C0000704700BFD01F00202DE9F047364F3B789A
:104C1000FF2B4ED10C4600294FD0002154220646CE
:104C2000324802F0B5FE0022314D324B28461A7050
:104C3000FCF728FD304B1D60304D05F11400FCF7EA
:104C40002FFD284601F0C0FB2D4B1D602D4B23B1DD
:104C50002D48FFF7E1FD2D4B18604FF0000A2A4D5B
:104C600053462A78DFF8A890DFF8A0800CE0D8F847
:104C7000002012EB431311D05B687BB198472A7870
:104C80005FFA8AF39A4222D393420AF1010AEED3E1
:104C90009B1A09EB43135B68002BEFD14FF0E02325
:104CA000D3F8F03DDA0700D500BE00242046BDE869
:104CB000F08701242046BDE8F0874FF0E023D3F8C9
:104CC000F03DDB07F1D500BE2046BDE8F087214668
:104CD00030463E70FFF7B4FD04460028EDD0304664
:104CE000FFF7F8FDE6E700BFC4130020D01F002047
:104CF000C81F0020F725002024200020A813002032
:104D00002820002019480010F5250020001E002052
:104D1000D87E00102DE9F04FDFF8BC928BB099F8E7
:104D20000030FF2B00F0EC80A64CDFF8B0A2DFF8DB
:104D3000B0B225686B69EFF3108272B6D3E8CF0F7B
:104D400001210028FAD1C3E8401F0028F6D1BFF3A3
:104D50005F8FAA61284607A901F092F900236A69CA
:104D6000C2E88F3FAB6983F31088002800F0C88049
:104D70009DF81D30013B072B00F27983DFE803F03B
:104D8000A4AF909988360A04089B002BD1D00998CB
:104D90009847CEE79DF820108B4B01F07F0503EB81
:104DA000450303EBD11393F834206FF3000283F82B
:104DB000342093F834206FF3820283F83420002DDE
:104DC00000F0A18081481A7D03789A4280F090809B
:104DD000DBF8003013EB421300F08B809D699DF8E7
:104DE0002120099B9DF81C00A847A2E7784A137868
:104DF000002B7ED01378013BDBB21370137803F0E5
:104E0000FF00002B95D1704D9DF81C802B7843F04E
:104E100001032B7095F8343060F3000385F83430CB
:104E200095F8343060F3820385F8343095F83530E6
:104E300060F3000385F8353095F8353060F3820370
:104E400085F8353000F078FC9DF8203003F06002E2
:104E5000602A0BD0402A60D003F01F03012B00F022
:104E6000C180022B00F08680002B62D04FF0E0233F
:104E7000D3F8F03DDD0700D500BE9DF81C000021F1
:104E8000FFF7E8FD80219DF81C00FFF7E3FD50E7E8
:104E90004D4B1B78D9077FF54CAFFFF7A3FE48E7D2
:104EA000494BDB78DA077FF544AF0898FFF78EFEB1
:104EB0003FE7454B1A78D0077FF53BAF1878C0F332
:104EC000C000FFF78DFE34E79DF81C00FFF736FEAB
:104ED00000F028FC3C4B9DF820209A7029E79DF8B3
:104EE0001C00FFF72BFE00F01DFCFFF777FE20E70C
:104EF00011D04FF0E023D3F8F03DDC0700D500BE21
:104F00000BB0BDE8F08F099B9DF821209DF81C0097
:104F100000F026FC0DE7534660E72E4800F00CFC3D
:104F20004046012108AAFFF763FC00287FF401AF87
:104F3000A3E7202A00F08081002A97D19DF8213034
:104F4000092B93D801A252F823F000BFD7510010CB
:104F5000BB5100106D4E0010F95100106D4E001045
:104F6000A15100104F5100106D4E0010395100102A
:104F70006B5000109DF8241011F0700F7FF476AF85
:104F8000124B01F07F06187805EB460303EBD113B3
:104F90001B7DCF0983424FEA4606019753D340F069
:104FA00068815746002A00F06881786900F0C4FBE8
:104FB000404601217B6908AA984700287FF4B9AED2
:104FC0005BE700BF28200020D01F0020F52500202F
:104FD000F7250020F1470010C4130020D87E0010F0
:104FE000001E00209DF824300F2B3FF646AFAE4A3E
:104FF0002B441B791278934230D37FF43EAF554651
:10500000686900F099FB012140466B6908AA98473E
:1050100000287FF48EAE9DF8203013F060057FF4F9
:105020002CAF9DF821300A3B012B3FF626AF00F054
:1050300083FB9DF821300A2B00F0EE81404608A941
:1050400000F0F0FA75E6DBF8007007EB4317002A72
:1050500000F01381002F3FF410AFA6E7DBF80050FB
:1050600015EB43153FF409AFCAE76B789DF8226052
:105070009E4200F04A816B78002B40F0BB816E703D
:10508000002E00F04081701EC0B2FFF74FFA0028DA
:1050900000F05C814378022B40F058812B78C27974
:1050A00023F03001C2F340131B01C2F3801243EA24
:1050B00042130B432B70438800F10907C318029376
:1050C000CDF80C80029BBB4240F2A1817B780B2B78
:1050D00000F0AC814FF00108042B40F0378100262E
:1050E000029B3946DA1B704B37461B78019692B209
:1050F0001BE0DBF8006016EB471600F02781019BF0
:105100000398013301933369CDE904129847DDE92F
:105110000412082802D9824280F0FC80624B9DF87C
:1051200004701B78BB42C0F01181BB42A7EB0303A4
:10513000DFD80AEB4316E2E76B7840468DF81A3069
:105140000DF11A02012308A900F086FAF1E5BDF875
:105150002200030A5A1EC0B20E2A3FF68EAE01A1EB
:1051600051F822F07D53001015520010B953001071
:105170007B4E00107B4E00109B5300101552001008
:105180007B4E00107B4E00107B4E00107B4E0010BB
:105190007B4E00107B4E00107B4E00106F530010B2
:1051A00008A800F0CFFA40469DF82210FFF796FBC2
:1051B0002B7843F002032B70BBE5BDF82230012BA6
:1051C0007FF45BAE2B7840466FF3C30308A92B70C6
:1051D00000F028FAADE540462B789A0802F002026A
:1051E000C3F340131343ADF81A300DF11A02022332
:1051F00008A900F031FA9CE5BDF82230012B7FF4BC
:105200003CAE2B78404643F0080308A92B7000F011
:1052100009FA8EE5022B00F00F81FFF7DBFC024656
:1052200000283FF42AAE4046538808A900F014FA3B
:1052300000287FF47EAD20E69DF824300F2B3FF64A
:105240001CAE194A2B441B791278934227D2DBF803
:10525000005015EB43153FF410AE686900F06CFA8E
:10526000404601216B6908AA984700287FF461AD88
:1052700003E6002A7FF401AE00279DF8212002F00A
:10528000FD03012B12D0002A7FF4F0AD019B3544C1
:105290002B4493F834304046C3F34003A3E77FF434
:1052A000ECAD5546D9E700BFF5250020BDF822300A
:1052B000ABB9012A00F0888099F80000FFF7CAFB1B
:1052C000019AAB19134493F8342042F0020283F898
:1052D000342093F8342042F0010283F83420002F68
:1052E0003FF427AD786900F027FA7B69012108AA0D
:1052F00040469847002000F01FFA95F83530DE0749
:105300003FF517AD9AE6FFF769FC404608A900F0A3
:1053100089F90EE5B8F1010F33463E460F4600F01D
:105320009F80B8F1000F00F08E800023B97804E070
:105330001671DAB2904540F28680CA1855FA82F2A8
:1053400092F804C00133BCF1FF0FF1D04FF0E0231D
:10535000D3F8F03DDB0700D500BE4FF0E023D3F8D3
:10536000F03DDF0700D500BE00236B7085E5FFF739
:105370003BFA024600287FF456AF7EE5FFF7D2F8ED
:10538000024600283FF472AD4046122308A900F0FF
:1053900063F900287FF4CDAC6FE5FFF719FC0246F6
:1053A00000283FF46AAD4046137808A900F054F98C
:1053B00000287FF4BEAC60E5BDF82410FFF7BAF812
:1053C00002460028EFD158E599F800000293FFF754
:1053D00059FB019BAA191A4492F83410029B63F3FB
:1053E000410182F8341092F8341063F3000182F81E
:1053F000341074E700214046FFF778FA4046FFF783
:1054000013FBAF784046FFF799FBAF7037E6DDF846
:105410000C80FFF7E1FB78E74046012308A90DF176
:105420001A028DF81A5000F017F982E43B7897F8C9
:1054300003801F447B784FE6FFF778F80246002888
:105440007FF4F1AE12E539460246334607440C4874
:1054500000F08CFD0B4B1B78B342BFF433AE75E705
:105460001B69094A934208BF4FF002085DE74FF0FD
:10547000E023D3F8F03DDB077FF55BAC00BE58E4DA
:10548000E41F0020F5250020815B00102DE9F84F76
:105490000A9F002A40D00C461E4615464FF0000ACF
:1054A000DFF87C90DFF87C8018E0204698F8021046
:1054B00099F800B000F026FDE0B121465846FFF70C
:1054C00031FAF0B1A2780AF1010AD30916BF0B9B99
:1054D0003A701A702278AA4514441DD06278052AC1
:1054E0000FD1E17801F00301B1420AD1A27812F0A4
:1054F000700FDAD04FF0E023D3F8F03DDA0700D593
:1055000000BE4FF0E023D3F8F03DDB0702D40020CB
:10551000BDE8F88F00BEFAE70120BDE8F88F00BFB4
:10552000C4130020D01F002038B58B7813F0700F03
:1055300008D04FF0E023D3F8F03DDB0700D500BEE4
:10554000002038BD074A084B0C46084691781D7864
:1055500000F0D8FC0028ECD021462846BDE83840B1
:10556000FFF7E0B9D01F0020C41300200B46064A05
:1055700006481168DA09343203F07F0302EB430373
:10558000184400F079BC00BF24200020D01F002068
:105590000B46064A06481168DA09343203F07F03E5
:1055A00002EB4303184400F091BC00BF242000200C
:1055B000D01F002010B5194C01F07F0C04EB4C04F7
:1055C00004EBD11090F834C01CF0010F08D04FF05C
:1055D000E023D3F8F03DDA0700D500BE002010BD6F
:1055E00090F834C000F130040D484CF0010C007804
:1055F00084F804C0FFF71AFA0028F0D14FF0E02237
:10560000237960F300032371237960F3820323710C
:10561000D2F8F03DDB07E1D500BE10BDD01F002061
:10562000C413002030B50B4C8C46A646002305461B
:10563000086849681A46AEE803009CF9001028463D
:105640009942C4E90233BDE83040ACBF802119461D
:10565000FFF7B0BF901F00202DE9F0412F4F4FF012
:105660000008BE468C46064608684968BA60AEE83F
:105670000300A7F80E80BCF8065082B0AB4228BFEA
:105680002B46BB819DB14BB314467AB397F90020EA
:10569000402B28BF4023002A32DB4146204A3046B7
:1056A000FFF788FF80B1012002B0BDE8F0819CF9CE
:1056B00000202B46002AACBF802100212A4630461C
:1056C000FFF778FF0028EED14FF0E023D3F8F03D4C
:1056D000DB0711D500BE02B0BDE8F08197F90010DC
:1056E0001A460029ACBF19468021D8E74FF0E023C5
:1056F000D3F8F03DDA070DD4002002B0BDE8F08108
:105700001A4621460648019302F05EF98021044AB8
:10571000019BC4E700BE2046C6E700BF901F0020E3
:10572000501F00200022034BC3E90022C3E90222DC
:105730001A617047901F0020014B1861704700BF2D
:10574000901F002030B40246044C00252346006818
:105750005168C4E9025530BC03C37047901F002054
:1057600070B5414CC90922780546B1EBD21F1E46DF
:1057700082B021D04BB14FF0E023D3F8F03DDA07EF
:1057800000D500BE002002B070BD2146FFF7BCF876
:10579000236973B12246032128469847012002B0AD
:1057A00070BD01462846FFF755F980212846FFF7CE
:1057B00051F9012002B070BD94F90020002A06DBE7
:1057C000A0680028DED01A46284902F0FDF8E089DA
:1057D000A168E288304480B231448242E081A16015
:1057E00016D03F2E14D9A28994F90040131A9BB207
:1057F000402B28BF4023002C27DB90424FF00001B4
:105800002FD01A4A2846FFF7D5FE0028D1D114E040
:1058100023692BB102212846134A98470028C0D09B
:10582000002394F9002028469A42ACBF80211946F3
:105830001A46FFF7BFFE0028BBD14FF0E023D3F894
:10584000F03DDB079ED500BE9DE7904208D01A468A
:105850000648019302F0B8F88021044A019BD1E781
:1058600080210022CEE700BF901F0020501F0020A3
:105870002DE9F0410446FFF7B7F908B9BDE8F0811A
:10588000FFF7BAF907460028F8D1C825144B05FBE5
:105890000436F278002AF1D005FB043303F1100539
:1058A000284600F0DBFB3F28E8D93846F178FFF7BF
:1058B0005DFE0028E2D0284600F0D0FB3F2809D941
:1058C000084A3846F17802EBC4124023BDE8F041A3
:1058D000FFF770BE3846F178BDE8F041FFF758BEDB
:1058E000881E0020041E002010B50446FFF77CF936
:1058F00008B9002010BDFFF77FF90028F9D1C823AF
:10590000034803FB0400007900F0010010BD00BF54
:10591000881E0020C82208B5034B02FB003010305F
:1059200000F082FB08BD00BF881E00202DE9F8436F
:105930004FF6FE744FF6FF734FF0C808A24298BFAF
:1059400013461C4E044608FB0065103528469AB2E3
:1059500000F0E0FB0746FFF747F910B93846BDE80D
:10596000F883FFF749F981460028F7D108FB046660
:10597000F378002BF2D0284600F070FB3F28EDD9D9
:105980004846F178FFF7F2FD0028E7D0284600F0FE
:1059900065FB3F2808D9084A48464023F17802EBC6
:1059A000C412FFF707FED9E74846F178FFF7F0FD8C
:1059B000D4E700BF881E0020041E00202DE9F0411E
:1059C0000546FFF711F910B90020BDE8F081FFF797
:1059D00013F907460028F7D14FF0C808174E08FB07
:1059E00005642434204600F01FFB0028ECD008FB9F
:1059F00005663846B178FFF7B9FD0028E4D04022AB
:105A00000F4902EBC5150D442046294600F082FBE4
:105A1000044670B103462A463846B178FFF7CAFDFE
:105A200050B94FF0E023D3F8F03DDB07CCD500BEF2
:105A3000CBE7B178FFF7ACFD2046C6E7881E002013
:105A4000041E002038B54FF6FE754FF6FF734FF079
:105A5000C80CAA4298BF13460B4C9AB20CFB0044E8
:105A600024340546204600F001FC034620461C462F
:105A700000F0DAFA3F2801D8204638BD2846FFF763
:105A80009DFF204638BD00BF881E0020C82208B5F3
:105A9000034B02FB0030243000F0E0FA08BD00BFE9
:105AA000881E0020F0B50025184C83B02946C82276
:105AB000204601F06DFFFF234FF4E1310822144826
:105AC00063710570A160A27304F1380101234022C3
:105AD000009504F1100000F075FA0123402204F152
